:020000040800F2
:1000000080EE001035C40308F5C50308F9C50308E0
:10001000FDC5030801C6030805C60308000000006B
:1000200000000000000000000000000009C60308F6
:100030000DC603080000000011C60308C1D4000863
:1000400015C6030819C603081DC6030821C6030800
:1000500025C6030829C603082DC6030831C60308B0
:1000600035C6030839C603083DC60308B1D70008E2
:1000700041C6030845C6030849C603084DC6030820
:1000800051C6030855C6030859C603085DC60308D0
:1000900061C6030865C6030869C6030879D6000867
:1000A0006DC603082DF2000871C6030875C6030863
:1000B00079C603087DC6030811F1000881C603084C
:1000C00085C6030811EF000889C603088DC603081A
:1000D00091C6030895C6030899C603089DC6030880
:1000E000A1C60308A5C60308A9C60308ADC6030830
:1000F000B1C60308B5C60308B9C60308BDC60308E0
:10010000C1C60308C5C60308C9C60308CDC603088F
:10011000D1C60308EBD50008D5C60308D9C6030825
:10012000E5EE0008DDC60308E1C60308E5C60308DE
:10013000E9C60308EDC60308F1C60308F5C60308BF
:10014000F9C60308FDC6030801C7030805C703086D
:1001500009C703080DC7030811C7030843F20008C5
:10016000F1EF0008CDF0000815C7030819C7030810
:100170001DC7030821C7030825C7030800000000A6
:1001800029C703082DC70308DFF8980A002101706A
:10019000418081710171DFF8901A0122CA73002237
:1001A0000A7014224A7000224A60DFF8802A12681E
:1001B0008A60002180F8AC10F2304FF6FF710180A8
:1001C0004180704770B50025DFF8584ADFF85C6A57
:1001D0000EE0DFF85C1A0A884FF6EF7002400A80E2
:1001E000DFF8500A416841F48031416001202070FD
:1001F000280040F070832078401E39283BD8DFE883
:1002000010F0660073009900B500C9006202670231
:100210006C02710276027A027E02820286028A02F1
:100220008E0292029602A402A802AC02B002B402AC
:10023000B802BC02C002C402C802CC02D102D5027C
:10024000D902DD0221032603E1022B033503E50277
:10025000E502E902ED02F102F502F902FD020103F5
:10026000050309030D031103150319031D0362039D
:1002700066039A029F0232463021DFF8BC0909F07A
:10028000B5F81621304609F099FCB16D814203D1D1
:10029000F16DC04381429CD0DFF89409018841F0A0
:1002A000100101809FED300A86ED000A86ED010AFB
:1002B00000200246032893DC06F1080141F82020C3
:1002C00006EB8001CA610A634A64401CF2E7DFF86A
:1002D00064098168C90340F1F482416821F48031E6
:1002E000416002202070ECE2E078A178884200F0C2
:1002F000E8822178022940F0E48204F10801085CD8
:100300000A2811D1DFF83409C4F88C00207900F0F4
:10031000FE0040F002002071DFF82409016841F07E
:100320008001016003202070E078401C00F01F0075
:10033000E070D9E7207910F0030F40F0C282DFF8B7
:100340000419C4F88C1000F0FE0040F00200207187
:10035000DFF8EC08016841F080010160A078E070EE
:1003600004202070ADE200BF00901845E078A1782D
:10037000884200F0A6822178042940F0A28204F18C
:100380000801095C0A2901D105212170401C00F0F7
:100390001F00ECE70320207001E006202070E178C8
:1003A000A078814200F08D822078032840F0898275
:1003B00004F108000A46805C0A2800F0828200F0FE
:1003C000DF00491C01F01F01E170A0F141021A2A6F
:1003D000E5D204F108020B46D25C02F0DF0202EB28
:1003E0000022491C01F01F01E17092B244F2471053
:1003F000121A00F0D5804FF4FE70121A00F0D3806C
:10040000FE3A00F0EC80921E00F0F380521E00F0E5
:10041000E180521E00F08780521E00F0FE80D21E46
:1004200000F0F680521E00F00281D21E00F0C5805E
:10043000521E00F0F780D21E7AD0521E70D0521E8B
:1004400000F0B680521E00F0CF80921E00F0DB80DC
:10045000521E00F08180521E00F0D080921E00F0EB
:10046000EB80E73A59D0121F00F095804FF4FF70EF
:10047000121A00F08080D21E00F0158140F2FD10AB
:10048000121A00F08280113A00F082804FF43C7022
:10049000121A00F0EA80093A00F0E280521F00F0E0
:1004A000DA80521E00F0CD80521E00F0CF80521E26
:1004B00000F0E080521E00F0E280521E00F0E48066
:1004C000EC3A3AD0113A3DD0121F00F0E280921E71
:1004D00000F0E480EC3A00F0EE80FD3A46D04FF4B4
:1004E0008070121A4CD040F21220121A6DD040F2D5
:1004F000F310121A35D0521E09D0D21E3FF44DAF60
:10050000521E24D0521F5DD0121F03D047E7072090
:10051000207044E70820207041E7092020703EE762
:1005200000F0E2FF3BE7102020700020607036E70B
:10053000112020700020607031E712202070002010
:1005400060702CE7132020700020607027E71420D3
:1005500020700020607022E715202070002060705D
:100560001DE7162020700020607018E7172020700B
:100570000020607013E718202070002060700EE7E4
:10058000192020700020607009E703F00FFE06E7D5
:100590001E20207003E71C20207000206070FEE603
:1005A0001D202070FBE61F20207000206070F6E602
:1005B0002020207000206070F1E6212020700020B3
:1005C0006070ECE622202070E9E6232020700020F5
:1005D0006070E4E62420207000206070DFE62720B1
:1005E000207000206070DAE62720207007206070FD
:1005F000D5E6272020700E206070D0E628202070DD
:1006000015206070CBE62920207000206070C6E6BF
:100610002A20207000206070C1E62B20207000206E
:100620006070BCE62C20207000206070B7E62D20A2
:10063000207000206070B2E62E20207000206070D4
:10064000ADE62F20207000206070A8E630202070DA
:1006500000206070A3E631202070002060709EE6CC
:10066000322020700020607099E633202070002036
:10067000607094E634202070002060708FE6352092
:100680002070002060708AE63620207000206070A4
:1006900085E6392020700020607080E63A202070C6
:1006A000002060707BE6012006F006FC00206080E0
:1006B0003720207073E6012006F084FC0020608063
:1006C000382020706BE60320207000F0BBF98FE526
:1006D0000320207000F08BFA8AE50320207000F0E0
:1006E0002BFA85E50320207000F0B2FA80E500F0D7
:1006F000EDFF01257CE501F07BF9012578E501F0AE
:10070000CDFA012574E501F07DFC012570E501F0CD
:10071000ADFD01256CE501F059FE012568E501F00C
:10072000A3FF012564E500F01DFF012560E502F04F
:1007300075FC01255CE5002005F044FA012557E52C
:10074000012005F03FFA012552E502F08CFE01255B
:100750004EE502F0EBFE01254AE502F0E7F801253F
:1007600046E503F077F8012542E503F0FDF80125A1
:100770003EE503F0FFFA01253AE503F0A7FC012569
:1007800036E503F04BFD012532E503F08BFE012534
:100790002EE504F0FBF901252AE50320207004F082
:1007A00091FA25E503F0CAFF012521E504F00CFBD1
:1007B00001251DE502F0BCFA012519E504F05CFCF9
:1007C000012515E504F0A0FE012511E504F0A4FFC4
:1007D00001250DE505F020FB012509E506F008F8E7
:1007E000012505E506F068F8012501E506F0C8F8E1
:1007F0000125FDE406F02AF90125F9E406F0E0F907
:100800000125F5E405F004FC0125F1E405F07EFC8A
:100810000125EDE405F0F4FC0125E9E405F06CFDAB
:100820000125E5E405F0E8FD0125E1E405F064FEBD
:100830000125DDE405F0DEFE0125D9E405F054FFD5
:100840000125D5E40320207006F0D0FAD0E403207F
:10085000207006F021FBCBE4DFF8D803416841F4B7
:1008600080614160262020700125C1E4DFF8C403C7
:100870008168490525D5416821F480614160802166
:10088000012008F097FFDFF8F03B32224FF44031AF
:10089000012008F033FEDFF8E43B2422DFF8A81340
:1008A000012008F02BFEDFF8D83B2422DFF89C1350
:1008B000012008F023FE8421012008F07BFF0320A3
:1008C0002070012594E406F045FB012590E406F034
:1008D000ADFB01258CE470BD70B4DFF84813C87817
:1008E00001F10802125C0A2A03D00844407A0A285F
:1008F00001D1052050E000200246034600E004201C
:10090000CC788D78AC4247D0050045D101F108057F
:100910002646AD5D160008D0303D092DEFD90022E6
:10092000641C04F01F04CC70EAE72D2D05D10122D0
:10093000641C04F01F04CC70E2E7A5F13106092E17
:1009400001D20120DCE7242D03D005F0DF06582E6C
:1009500005D10220641C04F01F04CC70D0E7222DC6
:1009600005D10320641C04F01F04CC70C8E7302DAF
:1009700005D10123641C04F01F04CC70C0E71D00E6
:1009800005D00120641E04F01F04CC70B8E7641C7D
:1009900004F01F04CC70B3E770BC704710B40020A3
:1009A000A04A09E000EB80040846303800EB440020
:1009B0005B1C03F01F03D370D37891788B4206D071
:1009C00019461144097AA1F130040A2CEAD310BC6B
:1009D000704710B400221346924809E0134622469D
:1009E000573A02EB03120123491C01F01F01C170A9
:1009F000C1788478A14222D00C460444247A302C59
:100A000003D11C00F0D01201EEE7A4F13103092B51
:100A100006D213462246303A02EB03120123E3E7E3
:100A2000A4F14103062B06D213462246373A02EBC5
:100A300003120123D8E7A4F16103062BCED310469D
:100A400010BC704710B5DFF8144B02E0FFF7A6FFAB
:100A500020707448C178827891426CD00A46024472
:100A6000127A0A2A67D002F0DF02491C01F01F0146
:100A7000C170A2F141001A28EBD2412A35D0482A90
:100A800046D04C2A0BD0532A02D0542A1AD0E0E781
:100A9000FFF722FF0128D9D000202070D9E7FFF707
:100AA0001BFF012802D1FFF779FF00E00020DFF8EB
:100AB000B01AC0B2002802D180204880C9E7802047
:100AC0000880C6E7FFF708FF012802D1FFF766FF9D
:100AD00000E000204FF40061DFF8B82BC0B200281E
:100AE00001D15180B5E71180B3E7FFF7F5FE01288A
:100AF00002D1FFF753FF00E00020DFF89C1B4FF40A
:100B00000072C0B2002801D14A80A2E70A80A0E7A3
:100B1000FFF7E2FE012802D1FFF740FF00E00020CE
:100B2000DFF8701BC0B2002802D10120488090E796
:100B3000012008808DE710BD10B509E0DFF85C0BDF
:100B400008214180102141802021418040214180A5
:100B50003448C1788278914248D00A460244147AD7
:100B60000A2C43D004F0DF04491C01F01F01C170BE
:100B7000A4F141001A28EBD2FFF7AEFE012803D101
:100B8000FFF70CFFC0B200E00020472C24D0492C16
:100B900018D04C2C02D0532C0AD0CFE7DFF8FC1A27
:100BA000012802D108200880D2E708204880CFE73A
:100BB000DFF8E81A012802D110200880C8E71020C9
:100BC0004880C5E7DFF8D41A012802D12020088028
:100BD000BEE720204880BBE7DFF8C01A012802D119
:100BE00040200880B4E740204880B1E710BD0D48A0
:100BF000C1788278914213D00A460244127A0A2AB6
:100C00000ED002F0DF02491C01F01F01C170A2F1F9
:100C100041001A2804D2DFF8880A42700AF0B2B8FC
:100C200070470000C8BC001008CE001058C8001063
:100C300058CB001044CB0010F400030004B30308A9
:100C40000C5000401C9B030864000300AC00030030
:100C500070B5DFF8504ADFF8246808E080B2502809
:100C600003D10120DFF8401A0870A078E070E07826
:100C7000A178884200F0378404F108010246895CBB
:100C80000A2900F0308401F0DF01401C00F01F0051
:100C9000E070A1F141001A28E9D2432900F06882EE
:100CA000442900F0C982472900F06783482900F0F1
:100CB000CB824D2900F0A580502906D0522900F0A2
:100CC0000781572900F0D981CFE7FFF705FE0128FA
:100CD00002D1FFF763FE00E0FF20C0B2401E0B28E8
:100CE000C3D8DFE800F0072C3146565D0606647471
:100CF0008489BAE7DFF8B81904204880052001E0AC
:100D0000401EC0B20028FBD10420088041F2A86038
:100D100000E0401E014689B20029FAD172B6DFF820
:100D20009409016821F48071016062B640F6FF0009
:100D300008F09AFA41F23C1008F096FA95E772B67C
:100D400020BF20BF62B690E772B6DFF86C09016879
:100D500021F002010160016841F001010160DFF84A
:100D6000640C016841F00401016020BF20BF62B63D
:100D70007BE772B6DFF84009016841F002010160CB
:100D8000DFF8400C016841F00401016030BF62B639
:100D90006BE7DFF8380C016821F4E061016064E77B
:100DA000DFF8280C016841F4E06101605DE74FF471
:100DB0000060DFF81C1C0880DFF8180C016821F4C3
:100DC00070410160016841F4204101604DE7DFF8A6
:100DD000040C016821F470410160016841F4A041F4
:100DE00001604FF40060DFF8E81B48803DE7022017
:100DF000DFF8BC18488038E70220DFF8B418088014
:100E000033E7FFF769FD012802D1FFF7C7FD00E0D6
:100E1000FF20C0B2401E09283FF627AFDFE800F0F0
:100E2000060B10353A3F42474C521EE70120DFF8CF
:100E3000A81B087319E70020DFF89C1B087314E750
:100E4000DFF86C1804204880052000E0401E0246B0
:100E500092B2002AFAD10420088041F6524000E004
:100E6000401E014689B20029FAD10BF0BBFCDFF825
:100E70002C1801204880142000E0401E024692B247
:100E8000002AFAD101200880EFE60120DFF84C1B90
:100E90000870EAE60020DFF8441B0870E5E60CF075
:100EA00097F9E2E60120DFF8381B0870DDE6002044
:100EB000DFF82C1B0870D8E64FF48070DFF8141BA5
:100EC0000883D2E64FF48070DFF8081B4883CCE635
:100ED000FFF702FD012802D1FFF760FD00E0FF20CF
:100EE000C0B2401E06283FF6C0AEDFE800F0052C79
:100EF000465B7A98C300B8E600200246DFF87855D2
:100F000008E005EB800181ED000A05F1280141F8B8
:100F10002020401C9FEDC60A0528F2DBDFEDC50A44
:100F2000C5ED040A85ED080A1046A864C5ED090A56
:100F3000E8641721284608F041FEE865C0432866AA
:100F40002520207091E605200022DFF82C5508E0CE
:100F5000DFF8901A45F8201005F1280141F820200B
:100F6000401C0828F4DB1721284608F027FEE86516
:100F7000C04328662520207077E600200146DFF870
:100F8000F85403E02A1882F85010401C0C28F9DBB2
:100F90001721284608F012FEE865C0432866252080
:100FA000207062E600200246DFF8D45408E0DFF843
:100FB000381A45F8201005F1200141F82020401C86
:100FC0000428F4DB4FF07E5028611046286310217E
:100FD000284608F0F3FD2864C0436864252020708B
:100FE00043E600200246354608E0DFF8001A45F8DF
:100FF000201005F1200141F82020401C0428F4DBDA
:101000004FF07E502861104628631021284608F0D2
:10101000D5FD2864C04368642520207025E605209E
:10102000DFF85C54002212E09FEDA90A06EB800174
:1010300081ED000A06F1200141F8202005EB800136
:1010400081ED000A05F1200141F82020401C08280C
:10105000EADB1021304608F0B1FD3064C043706413
:101060001021284608F0AAFD2864C04368642520A2
:101070002070FAE511F02AF9F7E5FFF72DFC0128B9
:1010800002D1FFF78BFC00E0FF20C0B2012804D0A2
:10109000022829D004284ED0E7E5002014F0B8F843
:1010A000002808D0DFF8C81B04F1280014F00EFA5D
:1010B0000D20E07107E0DFF8BC1B04F1280014F0FC
:1010C00005FA0F20E071207900F0FD0040F00100EA
:1010D00020710020A071DFF8A00B016841F08001B1
:1010E000016003202070C0E5012014F091F8002871
:1010F00008D0DFF87C1B04F1280014F0E7F90D207C
:10110000E07107E0DFF86C1B04F1280014F0DEF951
:101110000F20E071207900F0FD0040F00100207107
:101120000020A071DFF8500B016841F080010160E0
:101130000320207099E5DFF8445B2878002812D15D
:10114000DFF83C1B487800280DD1087800280AD128
:1011500001206870822014F093FFE860287800284E
:101160007FF483ADFAE7822014F08AFFE8607CE523
:10117000FFF7B2FB012802D1FFF710FC00E0FF20CF
:10118000C0B2401E05283FF670ADDFE800F0041E37
:10119000383E444A69E5DFF8EC1A4879C0073FF564
:1011A00064AD002006E0DFF8E42A125C0B1883F837
:1011B0006820401C1F28F6DB1F208871487900F04A
:1011C000FB0040F0020048714FE5DFF8C41A48798F
:1011D000C0073FF54AAD002006E0DFF8B02A125CF8
:1011E0000B1883F86820401C1F28F6DB1F2088712D
:1011F000487900F0FB0040F00200487135E54FF4FB
:101200000050DFF8901A08802FE54FF40050DFF807
:10121000841A488029E54FF40060DFF8781A0880C6
:1012200023E54FF40060DFF86C1A48801DE500BF2D
:1012300040DA923964CD4839FFF74EFB01287FF43C
:1012400014ADFFF7ABFB10E5FFF746FB012803D118
:10125000FFF7A4FBC0B200E0FF2000281FD1DFF899
:101260007807017801F0EF010170DFF830044FF4E6
:10127000804343804FF480510180DFF81C2A1568B9
:101280004FF6FE7005401560DFF824044FF400624D
:10129000028001804FF4005101800380E5E40528BD
:1012A00061DADFF834170A78D30703D542F0040275
:1012B0000A70FEE7DFF8E029136843F001031360CA
:1012C000012807D037D3032823D012D333E000BF3F
:1012D00042CFE63D4FF40060DFF8D4235080DFF8C2
:1012E000BC034FF4805202804FF44063438042803D
:1012F0002FE04FF48052DFF8B8034280DFF89C0300
:1013000002804FF4406343804FF480630380428047
:101310001FE04FF40050DFF898235080DFF87C0383
:101320004FF4805202804FF4406343804FF40063D7
:10133000038042800DE04FF48040DFF8742350803A
:10134000DFF858034FF4805202804FF4406303806B
:1013500042804FF48040DFF844231080087840F04A
:101360001000087081E409287FF47FACDFF8840C5A
:10137000002181700121C17077E4FFF7ADFA0128E7
:1013800002D1FFF70BFB00E00020024692B2022AD6
:1013900005DC0120DFF8601C21F8120065E4642AF6
:1013A000C0F28A80642092FBF0F101297FF45DACE9
:1013B00000FB112189B20A2091FBF0F005283FF7CC
:1013C00054AC002809D100EB8002A1EB42000428B4
:1013D0006ADADFF8281C887066E0012809D100EB82
:1013E0008002A1EB420001285EDCDFF8101CC8700F
:1013F0005AE0022809D100EB8002A1EB420001284B
:1014000052DCDFF8F81B08714EE0032809D100EB2D
:101410008002A1EB4200012846DCDFF8E01BC87126
:1014200042E0042809D100EB8002A1EB4200012830
:101430003ADCDFF8C81B487136E0052834D100EBF0
:101440008002A1EB420001282EDCDFF8B01B00284F
:1014500018D100204872C8724873C8734874C874A1
:101460004875C875012008728872087388730874FB
:1014700088740875887517E0B4E60120E0BF001095
:1014800028C00010002008728872087388730874DE
:1014900088740875887501204872C8724873C873CB
:1014A0004874C8744875C87572B60120DFF8501BBF
:1014B000888062B6FFF7D9BB014689B24D2907D1B2
:1014C000DFF814050121417300218173FFF7CDBBC3
:1014D000014689B24E297FF4C1AB0020DFF8F81431
:1014E0004873FFF7C2BB70BD80B5FFF7F5F901285F
:1014F00002D1FFF753FA05E0022802D1FFF769FA9B
:1015000000E0FF20C0B2052827D8DFE800F003097B
:101510000F151B2163480A2101700021417001BD94
:1015200060480B2101700021417001BD5D480C2114
:1015300001700021417001BD5A480D210170002148
:10154000417001BD57480E2101700021417001BD5D
:1015500054480F2101700021417001BD3ACB0010A9
:101560001820024010B54F4C607801461C2900F24B
:101570008D80DFE801F00F132A312A132A312A1354
:101580002A312A132A572A132A572A132A572A1389
:101590002A5785000020607101206070DFF8C40CBC
:1015A000617950F82100C4F88C00207900F0FE0029
:1015B00040F002002071DFF8C006016841F08001B0
:1015C00001606078401C607010BD217911F0030F3C
:1015D0005ED1401C607010BD6079411C6171DFF804
:1015E000881C51F8202031A104F1280013F06EFF6F
:1015F00004F12D000A2101700D214170207900F0C5
:10160000FD0040F0010020710020A0710720E07172
:10161000DFF86406016841F0800101606078401CD9
:10162000607010BD0FF29401627901EB820151F8F4
:101630000C1C0A88172801D002F0FF021BA104F13C
:10164000280013F043FF6079401C607104F12D0005
:101650000A2101700D214170207900F0FD0040F059
:10166000010020710020A0710720E071DFF808065A
:10167000016841F0800101606078401C607010BD1D
:101680002079C00704D40320207010BD03202070EF
:1016900010BD000018180240180002401810024047
:1016A00020CD0010C8BC00106DC500102535750098
:1016B00018140240003C014000700040B0CB001004
:1016C000B1CB0010BCCB0010E5CC0010F8B5DFF8B2
:1016D000E84C6078042800F27281DFE810F0050021
:1016E000A000A6000B011001DFF8D05C95ED000A08
:1016F000DFEDB50A80EE200A15F0D6FFDFF8C06CEA
:1017000010EE100A15F0E0FF02460B46314604F1D8
:10171000280013F0DBFE04F134072020387095ED2B
:10172000010ADFEDA90A80EE200A15F0BDFF10EED8
:10173000100A15F0C9FF02460B46314604F1350088
:1017400013F0C4FE2020787395ED020ADFED9E0AA7
:1017500080EE200A15F0A8FF10EE100A15F0B4FF75
:1017600002460B46314604F1420013F0AFFE202042
:10177000B87695ED030ADFED940A80EE200A15F0A5
:1017800093FF10EE100A15F09FFF02460B463146FC
:1017900004F14F0013F09AFE04F15B07202038702B
:1017A00095ED040ADFED880A80EE200A15F07CFF33
:1017B00010EE100A15F088FF02460B46314604F180
:1017C0005C0013F083FE2020787395ED050ADFEDB1
:1017D0007E0A80EE200A15F067FF10EE100A15F061
:1017E00073FF02460B46314604F1690013F06EFEAA
:1017F0000A20B8760D20F876207900F0FD0040F040
:10180000010020710020A0714F20E071DFF8680412
:10181000016841F08001016001206070F1BD207914
:10182000C00700F1CE8002206070DFF8985BDFF81F
:10183000906B286815F048FF02460B46314604F1CC
:10184000280013F043FE04F1340720203870686844
:1018500015F03AFF02460B46314604F1350013F00D
:1018600035FE20207873A86815F02EFF02460B463F
:10187000314604F1420013F029FE2020B876E868D2
:1018800015F022FF02460B46314604F14F0013F0DB
:101890001DFE04F15B0720203870286915F014FF45
:1018A00002460B46314604F15C0013F00FFE202087
:1018B0007873686915F008FF02460B46314604F15B
:1018C000690013F003FE0A20B8760D20F87620791F
:1018D00000F0FD0040F0010020710020A0714F20B9
:1018E000E071DFF89403016841F08001016003209A
:1018F0006070F1BD2079C00763D404206070DFF808
:10190000C05ADFF8C46A306815F0DEFE02460B46A6
:10191000294604F1280013F0D9FD04F134072020F2
:101920003870706815F0D0FE02460B46294604F167
:10193000350013F0CBFD20207873B06815F0C4FE9D
:1019400002460B46294604F1420013F0BFFD202059
:10195000B876F06815F0B8FE02460B46294604F149
:101960004F0013F0B3FD04F15B072020387030699D
:1019700015F0AAFE02460B46294604F15C0013F05E
:10198000A5FD20207873706915F09EFE02460B4677
:10199000294604F1690013F099FD207900F0FD005B
:1019A00040F0010020710020A0714D20E071B2488C
:1019B000016841F08001016003202070F1BD032027
:1019C0002070F1BD10ED00E000002042003C02401C
:1019D000181C02400008024008CE00107DC4001010
:1019E0007CE40120DA6D3C3900000643C3F5284051
:1019F0002DE9F0412DED028BDFF8BC8998F801004C
:101A00000146102900F22981DFE811F01100800061
:101A1000110080008900800011008000110080000A
:101A200089008000110080001100800089000028DA
:101A300002D1DFF8144C15E0022802D1DFF80C4C7B
:101A400010E0062802D1DFF8084C0BE0082802D18C
:101A5000DFF8004C06E00C2802D1DFF8FC4B01E077
:101A6000DFF8F84B00252E462DE0092813DADFEDCC
:101A70007E0A80EE200A15F017FE0CE094ED000AB5
:101A8000241D98F801000328EFDADFED780A80EED4
:101A9000200A15F009FE10EE100A15F015FE024698
:101AA0000B46DFF81C1908F128002F46FFB2384416
:101AB00013F00CFD0C35202008F128012A46D2B283
:101AC00088546D1C761C3046C0B20628D6DB08F15F
:101AD00076000A2101700D21417098F8040000F091
:101AE000FD0040F0010088F80400002088F806009E
:101AF000502088F807006048016841F080010160CB
:101B000098F80100401C88F80100A9E098F804103A
:101B1000C90700F1A580401C88F80100A0E0042856
:101B200004D1DFF8244BDFF8247B0AE00A2804D133
:101B3000DFF81C4BDFF81C7B03E0DFF81C4BDFF801
:101B40001C7B00252E465BE00A282AD19FED460A21
:101B500088EE000A15F0A8FDB0EE408A9FED420A1B
:101B600088EE800A15F0A0FDF0EE408A19E094EDB1
:101B7000008A241DD7ED008A3F1D98F80100042833
:101B8000E2D19FED3A0A88EE000A15F08DFDB0EE25
:101B9000408A9FED360A88EE800A15F085FDF0EE4A
:101BA000408A38EEC80A78EE880A80EE200ADFED17
:101BB000360A20EE200A10EE100A15F085FD0246C6
:101BC0000B46DFF8A01A08F12800AC465FFA8CFC3F
:101BD000604413F07BFC0935202008F128012A46D7
:101BE000D2B288546D1C2A46D2B288546D1C2A4643
:101BF000D2B288546D1C2A46D2B288546D1C761C11
:101C00003046C0B20628B2DB08F176000A21017026
:101C10000D2141700A2181700D21C17098F80400D6
:101C200000F0FD0040F0010088F80400002088F872
:101C30000600522088F807000F48016841F0800133
:101C4000016098F80100102803D1032088F80000F3
:101C500006E0401C88F8010002E0032088F800003C
:101C6000BDEC028BBDE8F0810000A04200002042E4
:101C7000AC9A0308BC9A03080C500040C8CD001071
:101C8000F8B5001034E3012000004843209C03080D
:101C9000D4E30120180C024000040140F8B5DFF83D
:101CA000184760780146062900F2A081DFE811F0AC
:101CB00007006C0073006C00D8006C003D01DFF879
:101CC000505CDFF8FC66286815F0FEFC02460B4607
:101CD000314604F1280013F0F9FB04F13407202009
:101CE0003870686815F0F0FC02460B46314604F186
:101CF000350013F0EBFB20207873A86815F0E4FCA6
:101D000002460B46314604F1420013F0DFFB20206F
:101D1000B876E86815F0D8FC02460B46314604F167
:101D20004F0013F0D3FB04F15B07202038702869C3
:101D300015F0CAFC02460B46314604F15C0013F074
:101D4000C5FB20207873686915F0BEFC02460B467F
:101D5000314604F1690013F0B9FB0A20B8760D2072
:101D6000F876207900F0FD0040F00100207100209D
:101D7000A0714F20E071DFF89C0B016841F08001F9
:101D8000016001206070F1BD2179C90700F1308147
:101D9000401C6070F1BDDFF8805BDFF824662868C6
:101DA00015F092FC02460B46314604F1280013F070
:101DB0008DFB04F1340720203870686815F084FC2E
:101DC00002460B46314604F1350013F07FFB20201C
:101DD0007873A86815F078FC02460B46314604F18A
:101DE000420013F073FB2020B876E86815F06CFC15
:101DF00002460B46314604F14F0013F067FB04F135
:101E00005B0720203870286915F05EFC02460B46FF
:101E1000314604F15C0013F059FB202078736869A7
:101E200015F052FC02460B46314604F1690013F0EE
:101E30004DFB0A20B8760D20F876207900F0FD00E1
:101E400040F0010020710020A0714F20E071DFF808
:101E5000C40A016841F08001016003206070F1BD97
:101E6000DFF8B85ADFF85865286815F02DFC0246EF
:101E70000B46314604F1280013F028FB04F1340727
:101E800020203870686815F01FFC02460B4631466A
:101E900004F1350013F01AFB20207873A86815F0C0
:101EA00013FC02460B46314604F1420013F00EFBD0
:101EB0002020B876E86815F007FC02460B4631464C
:101EC00004F14F0013F002FB04F15B07202038708F
:101ED000286915F0F9FB02460B46314604F15C0017
:101EE00013F0F4FA20207873686915F0EDFB0246D0
:101EF0000B46314604F1690013F0E8FA0A20B8767F
:101F00000D20F876207900F0FD0040F001002071EE
:101F10000020A0714F20E071DFF8F809016841F05E
:101F20008001016005206070F1BDDFF89454DFF896
:101F3000F069306815F0C8FB02460B46294604F1EB
:101F4000280013F0C3FA04F13407202038707068B9
:101F500015F0BAFB02460B46294604F1350013F092
:101F6000B5FA20207873B06815F0AEFB02460B4638
:101F7000294604F1420013F0A9FA2020B876F0684F
:101F800015F0A2FB02460B46294604F14F0013F060
:101F90009DFA04F15B0720203870306915F094FB3E
:101FA00002460B46294604F15C0013F08FFA20200C
:101FB0007873706915F088FB02460B46294604F1D8
:101FC000690013F083FA207900F0FD0040F0010071
:101FD00020710020A0714D20E071DFF83809016800
:101FE00041F08001016003202070F1BD03202070CA
:101FF000F1BD000064CB001090DD012018C9001075
:102000008CDD01202DE9F047DFF8AC8398F8010062
:102010000146042900F22181DFE811F00500720079
:10202000050072007B00002804D1DFF8F84804F1B5
:102030000C0703E0DFF8F04804F10C0700252E46FA
:102040001AE094ED000A241D10EE100A15F03CFB76
:1020500002460B46DA4908F12800AC465FFA8CFCD0
:10206000604413F033FA0C35202008F128012A4689
:10207000D2B288546D1C761C3046C0B20328E0DB17
:10208000002419E097ED000A3F1D10EE100A15F02C
:102090001BFB02460B46CA4908F128002E46F6B241
:1020A000304413F013FA0C35202008F128012A4699
:1020B000D2B288546D1C641C2046C0B20328E1DBF8
:1020C00008F176000A2101700D21417098F8040092
:1020D00000F0FD0040F0010088F80400002088F8BE
:1020E0000600502088F80700DFF82808016841F052
:1020F0008001016098F80100401C88F80100AFE001
:1021000098F80410C90700F1AB80401C88F8010062
:10211000A6E0DFF81048DFF8105804F10C0905F1CB
:102120000C0A0026374634E094ED000A241DD5ED54
:10213000000A2D1D30EEC01A30EE800A81EE000A32
:10214000DFED9C0A20EE200A10EE100A15F0BCFA12
:1021500002460B46DFF80C1508F12800B4465FFA7A
:102160008CFC604413F0B2F90936202008F12801F4
:102170003246D2B28854761C3246D2B28854761C8B
:102180003246D2B28854761C3246D2B28854761C7B
:102190007F1C3846C0B20328C6DB344600254E46B5
:1021A000574634E096ED000A361DD7ED000A3F1D74
:1021B00030EEC01A30EE800A81EE000ADFED7D0AB3
:1021C00020EE200A10EE100A15F07EFA02460B46A9
:1021D000DFF8901408F12800A4465FFA8CFC6044F4
:1021E00013F074F90934202008F128012246D2B2F4
:1021F0008854641C2246D2B28854641C2246D2B24F
:102200008854641C2246D2B28854641C6D1C284633
:10221000C0B20328C6DB08F176000A2101700D2147
:1022200041700A2181700D21C17098F8040000F0FE
:10223000FD0040F0010088F80400002088F8060046
:10224000522088F80700DFF8CC06016841F08001D1
:102250000160032088F8000002E0032088F80000F5
:10226000BDE8F087F89B0308149C03082DE9F041B2
:10227000DFF8448198F8010001460C2900F29580AE
:10228000DFE801F00767076707676F67076707679A
:102290000700002802D1DFF8784A15E0022802D1B1
:1022A000DFF8704A10E0042802D1DFF86C4A0BE036
:1022B000082802D1DFF8644A06E00A2802D1DFF8D4
:1022C000604A01E0DFF85C4A00252E4608F1280745
:1022D00015E094ED000A241D10EE100A15F0F4F933
:1022E00002460B4636492846C0B2384413F0EEF891
:1022F0000C3520202946C9B278546D1C761C304616
:10230000C0B20328E5DB08F14F000A2101700D215E
:10231000417098F8040000F0FD0040F0010088F8DA
:102320000400002088F80600292088F80700DFF85C
:10233000E405016841F08001016098F801000C2873
:1023400003D1032088F8000032E0401C88F8010027
:102350002EE098F80410C9072AD4401C88F8010020
:1023600026E008F128000A2101700D2141700A21A0
:1023700081700D21C17098F8040000F0FD0040F05C
:10238000010088F80400002088F80600042088F87E
:102390000700DFF88005016841F08001016098F8CE
:1023A0000100401C88F8010002E0032088F80000CA
:1023B000BDE8F08100004843C8BC001084E501205E
:1023C000CC9A030890C0001018C200102DE9F0410B
:1023D000DFF8CC8B98F801000146222900F22F810A
:1023E000DFE811F023009E0023009E00A7009E005E
:1023F00023009E0023009E00A7009E0023009E0055
:1024000023009E00A7009E0023009E0023009E0044
:10241000A7009E0023009E0023009E00A7009E00B0
:1024200023009E0023009E00A700002802D1DFF8B1
:10243000744B33E0022802D1DFF8704B2EE00628FF
:1024400002D1DFF8704B29E0082802D1DFF8684B91
:1024500024E00C2802D1DFF8644B1FE00E2802D1E3
:10246000DFF85C4B1AE0122802D1DFF8584B15E078
:10247000142802D1DFF8504B10E0182802D1DFF801
:102480004C4B0BE01A2802D1DFF8444B06E01E2823
:1024900002D1DFF8404B01E0DFF83C4B00252E462F
:1024A0001AE094ED000A241D10EE100A15F00CF944
:1024B00002460B46DFF8241B08F128002F46FFB226
:1024C000384413F003F80C35202008F128012A467F
:1024D000D2B288546D1C761C3046C0B20328E0DBB3
:1024E00008F14F000A2101700D21417098F8040095
:1024F00000F0FD0040F0010088F80400002088F89A
:102500000600292088F80700DFF80804016841F078
:102510008001016098F80100401C88F8010091E0FA
:1025200098F80410C90700F18D80401C88F801005C
:1025300088E0042804D1DFF86C4ADFF8707A1AE0EA
:102540000A2804D1DFF86C4ADFF86C7A13E010280F
:102550000DD0162804D1DFF86C4ADFF86C7A0AE057
:102560001C2804D1DFF8644ADFF8647A03E0DFF85E
:102570004C4ADFF84C7A00252E4633E094ED000AF1
:10258000241DD7ED000A3F1D30EEC01A30EE800A40
:1025900081EE000ADFED320A20EE200A10EE100A6A
:1025A00015F092F802460B462E4908F12800AC4679
:1025B0005FFA8CFC604412F089FF0935202008F195
:1025C00028012A46D2B288546D1C2A46D2B28854B9
:1025D0006D1C2A46D2B288546D1C2A46D2B2885449
:1025E0006D1C761C3046C0B20328C7DB08F14F00D3
:1025F0000A2101700D2141700A2181700D21C170E5
:1026000098F8040000F0FD0040F0010088F8040094
:10261000002088F806002B2088F80700BD480168D4
:1026200041F08001016098F80100222803D10320C5
:1026300088F8000006E0401C88F8010002E0032052
:1026400088F80000BDE8F081F4C50010DCC500107A
:1026500024C600100CC6001014A00010D89F001053
:1026600000004843D49A03082DE9F041DFF83049CF
:102670006078032800F24881DFE810F00400410090
:10268000B000B600FEF728F9012803D1FEF786F95D
:10269000C0B206E0022803D1FEF79BF9C0B200E009
:1026A000FF20002808D104F19000DFF83819C1603C
:1026B000DFF83419016020E0012808D104F190000E
:1026C000DFF82819C160DFF82819016015E0022839
:1026D00008D104F19000DFF81C19C160DFF8181967
:1026E00001600AE0032840F00F8104F19000DFF858
:1026F0000C19C160DFF8081901600120607004F155
:102700009005EE68D6E9000115F002F800EE100A17
:1027100006F10800E860DFF8C46810EE100A14F053
:10272000D3FF02460B46314604F1280012F0CEFEDC
:1027300004F134072C203870202078702868011D9F
:102740002960006814F0C0FF02460B46314604F1D0
:10275000360012F0BBFE2020B873F8733874D5F839
:102760000C80D8E9000114F0D3FF00EE100A08F144
:102770000800E86010EE100A14F0A6FF02460B46AF
:10278000314604F1450012F0A1FE2C20787720207C
:10279000B8772868011D2960006814F095FF02468B
:1027A0000B46314604F1530012F090FE04F15F0035
:1027B0000A2101700D214170207900F0FD0040F0E8
:1027C000010020710020A0713920E071514801689A
:1027D00041F0800101600220607097E02079C0071D
:1027E00000F194800320607004F19005EE68D6E952
:1027F000000114F08DFF00EE100A06F10800E860F9
:10280000DFF8D86710EE100A14F05EFF02460B46A0
:10281000314604F1280012F059FE04F134072C204F
:102820003870202078702868011D2960006814F035
:102830004BFF02460B46314604F1360012F046FECD
:102840002020B873F8733874D5F80C80D8E90001EB
:1028500014F05EFF00EE100A08F10800E86010EEC8
:10286000100A14F031FF02460B46314604F14500D0
:1028700012F02CFE2C2078772020B8772868011DD4
:102880002960006814F020FF02460B46314604F12F
:10289000530012F01BFE04F15F070A2038700D2070
:1028A0007870E868D0E9000114F032FF14F00CFFF2
:1028B00002460B46314604F1610012F007FE2C205F
:1028C000B8732020F8732868006814F0FDFE0246F3
:1028D0000B46314604F16F0012F0F8FD0A203877FC
:1028E0000D207877207900F0FD0040F00100207184
:1028F0000020A0715520E0710648016841F0800178
:1029000001600320207001E003202070BDE8F08109
:10291000C0C000100C50004048C20010A8C00010F9
:1029200030C20010489F0010009F00102DE9F041B8
:10293000DFF86C4661780846042800F2E281DFE89F
:1029400010F005009F00470154014701032020704B
:10295000E078A178884200F0D681014621440D7AC2
:1029600005F0DF05401C00F01F00E070FDF7B4FF2C
:10297000012803D1FEF712F8C0B200E0FF200A28B8
:1029800000F3C181552D17D10A2800DD0A20DFF898
:102990008C1B00EB800201EB821000F57060C4F824
:1029A0009000502060716420DFF8741B08701520BF
:1029B000207001206070A6E1432D0AD1C82060710B
:1029C0000020DFF85C1B0870152020700320607069
:1029D00099E100EB80010801B0F5487F02DBA0F52A
:1029E000487080B2DFF8381B00F15002B2F5487F22
:1029F00003DDC0F120020A7001E064220A70502158
:102A0000617115212170012161704E2D08D104F1F1
:102A10009001DFF8102B02EB800008604A6072E141
:102A2000492D0CD104F19001DFF8F82A02EB800067
:102A300000F54860086002F54860486063E1412D98
:102A40000CD104F190014FF4C853DFF8D82A02EBFF
:102A5000800018440860D018486054E1462D0CD11D
:102A600004F190014FF41653DFF8B82A02EB80000E
:102A700018440860D018486045E10320207042E106
:102A800004F190052868011D2960DFF85085006871
:102A900014F01AFE02460B46414604F1280012F0DB
:102AA00015FD04F12C070A2038720D207872DFF82A
:102AB000706A3078401E3070C0B2002803D16420A4
:102AC0003070686828602868011D2960006814F06B
:102AD000FBFD02460B46414604F1360012F0F6FCBF
:102AE0000A20B8750D20F8753078401E3070C0B2DD
:102AF000002803D164203070686828602868011DB0
:102B00002960006814F0E0FD02460B46414604F1DE
:102B1000440012F0DBFC04F14D070A20F8700D2090
:102B200038713078401E3070C0B2002803D1642064
:102B30003070686828602868011D2960006814F0FA
:102B4000C3FD02460B46414604F1520012F0BEFCA2
:102B50000A2078740D20B8743078401E3070C0B2EE
:102B6000002803D164203070686828602868011D3F
:102B70002960006814F0A8FD02460B46414604F1A6
:102B8000600012F0A3FC0A20F8770D2084F86D0095
:102B90003078401E3070C0B2002803D164203070FD
:102BA000686828606079401F6071207900F0FD003E
:102BB00040F0010020710020A0714620E071DFF894
:102BC0008C0C016841F080010160022060709AE085
:102BD0002079C00700F197806079002802D0481E54
:102BE000607090E0032020708DE0DFF83459287881
:102BF000411C297045A6DFF8587C37F81020314673
:102C000004F1280012F062FC04F12C080A2088F874
:102C100000000D2088F801002878411C297037F841
:102C20001020314604F12E0012F050FC0A2088F8E2
:102C300006000D2088F807002878411C297037F815
:102C40001020314604F1340012F040FC0A2088F8CC
:102C50000C000D2088F80D002878411C297037F8E9
:102C60001020314604F13A0012F030FC0A2088F8B6
:102C700012000D2088F813002878411C297037F8BD
:102C80001020314604F1400012F020FC0A2088F8A0
:102C900018000D2088F819006079401F60712179B3
:102CA00001F0FD0141F0010121710021A1711E21FE
:102CB000E171C0B200281BD110F0BEF90A2088F8DB
:102CC0001A000D2088F81B0010EE100A14F0FCFC0E
:102CD00002460B460FF2500104F1480012F0F6FBD9
:102CE00004F14D000A2101700D2141702720E0718F
:102CF000DFF8580B016841F080010160042060702A
:102D000001E003202070BDE8F0810000253475004B
:102D100070C0001080C00010D8C00010F8C10010B2
:102D200008C2001060C20010252E316600000000AD
:102D300070B59B4C60780146042900F22D81DFE8D4
:102D400011F00500250169002501D300002004F1E0
:102D5000280204E0DFF8BC1B095C1154401C102859
:102D6000F8DDDFF8B40B0288DFF8B01B04F139009E
:102D700012F0ACFB04F13D050A2028700D206870AC
:102D8000002006E0DFF8981B095C221882F83F104B
:102D9000401C0E28F6DBDFF88C6B306914F094FCD5
:102DA00002460B46DFF8801B04F14D0012F08EFB4B
:102DB0000A2068760D20A876002006E0DFF86C1B5C
:102DC000095C221882F85810401C1328F6DBF068C2
:102DD00014F07AFC02460B46804904F16B0012F0B5
:102DE00075FB04F15E000A2141760D218176207980
:102DF00000F0FD0040F0010020710020A071512082
:102E0000E071DFF82C0B016841F0800101600120C6
:102E1000607070BDDFF81C0B0089012846D10020CE
:102E200004F1280204E0DFF8101B095C1154401C77
:102E30001328F8DBDFF8045B2A88DFF8E01A04F1D6
:102E40003B0012F043FB04F13D000A2181700D218B
:102E5000C170002004F1410204E0DFF8E41A095CCB
:102E60001154401C1328F8DB288800EE100AB8EE35
:102E7000400ADFED4D0A80EE200ADFED4D0A20EE1C
:102E8000200A10EE100A14F01FFC02460B46DFF871
:102E9000B41A04F1540012F019FB04F15E000A2187
:102EA00001700D2141703820E0710CE0002004F128
:102EB000280204E0DFF8901A095C1154401C132822
:102EC000F8DD1420E071207900F0FD0040F00100F1
:102ED00020710020A071DFF8580A016841F08001DC
:102EE00001600320607070BD002004F1280204E03E
:102EF000DFF8581A095C1154401C1328F8DDDFF87C
:102F0000500A0278DFF84C1A04F13C0012F0DEFAA5
:102F100004F13D050A20A8700D20E870002004F19E
:102F2000410204E00FF2DC01095C1154401C0E2840
:102F3000F8DDDFF8240A90ED000AB8EE400ADFED74
:102F4000280A80EE200A10EE100A14F0BDFB02469B
:102F50000B460FF2C00104F1500012F0B7FA0A203C
:102F600068770D20A877207900F0FD0040F001007F
:102F700020710020A0713420E071DFF8B4090168ED
:102F800041F0800101600320207070BD2179C907E4
:102F900004D4401C607070BD0320207070BD000020
:102FA000C8BC001098C3001000005045B8C3001002
:102FB0000000C842A8C30010C8C30010D8C3001046
:102FC000E8C30010B09D0010109E0010C09D0010BE
:102FD000209E001080A00010B0A00010CC9A030822
:102FE000286B6E4E68C90010B8C6001090C900105A
:102FF000CCC6001010CC0010E0C6001008BF0010B6
:10300000F4C600104D6178206C6F6F702074696D8C
:10301000653A200025202E336500000070B50020A1
:10302000DFF8384935E0DFF83819095C1154401CE5
:103030000328F8DD04F12C05202028706079303059
:1030400068703A20A8702020E870686E006814F05C
:103050003BFB02460B46DFF80C1904F1300012F07E
:1030600035FA20202874207900F0FD0040F001009E
:1030700020710020A0711520E071DFF8D0070168F1
:1030800041F080010160002060806078401C607029
:103090000120002840F0E68160780E2800F2DE81F1
:1030A000DFE810F00F00530057008600C1001F0139
:1030B0009301530057008600C1005300570086005B
:1030C000C10003202070E178A07881421BD004F178
:1030D00008000A46805C00F0DF00491C01F01F0177
:1030E000E170412811D104F12C00DFF8701C416619
:1030F00001F1280282665031C16600206071122001
:103100002070012060700120C3E748280DD104F130
:103110002C00DFF84C1C4166203181660020607174
:103120001220207007206070EDE74C28EBD104F1ED
:103130002C00DFF8301C4166203181660020607170
:10314000122020700B206070DDE7002004F12802BF
:103150006EE7E57802E06D1C05F01F05A07885425A
:10316000D1D004F10800405D0A28F4D1A578E078B8
:1031700004F10801095C2E2902D103202070EDE73B
:103180006178491C617004F10801095C0A29E5D0E5
:103190000D29E3D004F10801084414F0E0FA51ECE1
:1031A000100B14F0E9FA04F12C01496E0860D5E720
:1031B000002004F1280204E0DFF8AC1B095C115484
:1031C000401C0528F8DD04F12C052020A87060794A
:1031D0003030E8703A20287120206871A86E0068AD
:1031E00014F072FA02460B46DFF8781704F1320049
:1031F00012F06CF92020A874207900F0FD0040F056
:10320000010020710020A0711720E071DFF83C065A
:10321000016841F080010160002060806078401CFE
:103220006070012035E7E57802E06D1C05F01F05B0
:10323000A07885423FF467AF04F10800405D0A289A
:10324000F3D1A578E07804F10801095C2E2902D1B8
:1032500003202070ECE70A290ED00D290CD004F1D0
:103260000801084414F07BFA51EC100B14F084FAB6
:1032700004F12C01896E08606178042902D10520CF
:103280006070D5E760790246072A0DDB0A290BD169
:10329000DFF8CC6A1021304606F090FC3064C04361
:1032A000706425202070C3E7072A0DDB0E290BD19F
:1032B000DFF8B06A1021304606F080FC3064C0436D
:1032C000706425202070B3E7401C607104F12C006D
:1032D000426E121D4266826E121D8266C81E6070AA
:1032E000A6E7002004F1280304E0DFF8841A095C53
:1032F00019541046421CD2B20528F6DB202119547D
:10330000511CC9B2607903460A2B04DA303004F14B
:10331000280398540AE0312004F128039854607976
:10332000263004F128025054491CC9B23A2004F155
:1033300028025054491CC9B220205054491CC9B21B
:1033400004F12C00C06E0278642A06DB642092FB34
:10335000F0F030305854491CC9B20A2A0EDB642000
:1033600092FBF0F300FB132292B20A2092FBF0F0E2
:10337000303004F128035854491CC9B20A2092FB8A
:10338000F0F000EB8003A2EB4302303204F128009E
:103390004254491CC9B2202004F12802505420791B
:1033A00000F0FD0040F0010020710020A071491CD8
:1033B000E171DFF89804016841F0800101600020AC
:1033C000608006206070012063E6E578DFF88C6994
:1033D00002E06D1C05F01F05A07885423FF493AE16
:1033E00004F10800405D0A28F3D1A57804F1080033
:1033F000E178405C2E2802D103202070ECE70A28F7
:1034000007D00D2805D0FDF7C9FA04F12C01C96ECB
:103410000870617908460A280BDD1721304606F04E
:10342000CDFBF065C043306609F0A0FA252020707E
:10343000D2E7491C617104F12C00426E121D4266F4
:10344000826E121D8266C26E521CC266C9B20A2901
:1034500001DA012000E005206070BDE70320207044
:10346000012016E670BD38B50020DFF8F04425E0F5
:10347000DFF8C004428B2CA104F1280012F026F8DA
:1034800004F12C00202101703A214170202181702B
:10349000207900F0FD0040F0010020710020A071B3
:1034A0000720E071DFF8A403016841F080010160AA
:1034B000002060806078401C6070012000282CD1C2
:1034C00060780028D4D0012823D1E57802E06D1C73
:1034D00005F01F05A078854219D004F10800405D71
:1034E0000A28F4D1A5780320207004F10800E178BF
:1034F000405C2E28EED0FDF7EFF90128EAD1FDF768
:103500004DFADFF83014488314F0FAF9E2E70120AD
:10351000D4E7032020700120D0E731BDB45500105E
:103520007DCE001074720010253475002DE9FF4126
:103530000020DFF8284404F1280704E00020607030
:10354000032020700120002840F07D816578284606
:10355000062800F27481DFE810F0070023006900FC
:103560009F00C900C9002C011BF0DAF80028E5D043
:103570001BF063F800200DE004F150010144DFF876
:10358000782C125C0A70082803DADFF83C2B125CF6
:103590000A75401C0A28EFDD002060710120607070
:1035A00004F150006179421811780A2091FBF0F083
:1035B0000A2303FB101141EA001104F128000D4613
:1035C000EDB22D093035057001F00F013031417039
:1035D00020218170C1700171117D1A4691FBF2F2B8
:1035E00003FB121141EA02110A46D2B2120930322B
:1035F000427101F00F01303181713A21C1712021F6
:103600000172207900F0FD0040F0010020710020DF
:10361000A0710920E0718D48016841F080010160CE
:10362000002060800220607001208CE7E5781BE0BC
:103630000120607015E00A280BD00D2809D0FDF795
:103640004BF9012805D1FDF7A9F904F15001627980
:1036500088546079401C6071C0B20828E8DB032000
:1036600060706D1C05F01F05A078854200F09F80FA
:103670006078022840F09B8004F10800405D0A2831
:10368000EFD104F10800E178405C2E28D3D103206B
:10369000207000206070E4E704F1280530202870D5
:1036A0007820687094F8580005F09EF801460912D9
:1036B000A970E8700A2028710D206871207900F047
:1036C000FD0040F0010020710020A0710620E07193
:1036D0005E48016841F080010160002060806079EF
:1036E000401C60710420607001202CE72679F007EF
:1036F0005DD4302038707820787094F8058004F11B
:1037000050004146405C05F06FF801460912B9705F
:10371000F8700A2038710D20787106F0FD0646F029
:10372000010626710020A071042D06D10620E0714B
:1037300008F1010884F805802FE03C20B87143208F
:10374000F871522038724C2078724620B8723E20B0
:10375000F8722D203873532078736120B873762067
:10376000F873652038742C2078742020B8742220D7
:10377000F8742E203875222078752D20B8755120C8
:10378000F87575203876692078767420B8763A20F6
:10379000F876202038771D20E0712C48016841F030
:1037A00080010160002060806078401C6070012012
:1037B000C9E6E57829E004F15000405D48556D1CEC
:1037C0000A2DF8DD72B6DFF83C0A1AF06FFE684683
:1037D0001AF0E0FD62B6694602A807F01FFDDFF8A7
:1037E000280A0178012901DC01210170DFF81C0A97
:1037F00090F8CB1641F0080180F8CB1600206070DD
:10380000032020706D1C05F01F05A0788542CED0E6
:1038100060780628CBD104F10800405D0A28F1D178
:1038200004F10800E178405C2E28E7D072B602A8C7
:103830001AF0B0FD62B60025DFF8BC19C0E703201E
:10384000207001207FE6BDE8FF8100000C500040A1
:1038500038BB0010F8B50020404C04F12805DFF813
:10386000B069DFF8B07907E0DFF8AC09C17941F061
:103870000101C1710120607000284AD160780028E0
:10388000F2D0012841D1DFF89009C079C0073AD4BD
:10389000542028703A2068702020A870786813F0AF
:1038A00013FF02460B46314604F12B0011F00EFEC9
:1038B0000A20E8730D202874482068743A20A87400
:1038C0002020E874386813F0FFFE02460B463146AC
:1038D00004F13C0011F0FAFD04F148000A210170E6
:1038E0000D214170207900F0FD0040F001002071B1
:1038F0000020A0712220E0710D48016841F0800194
:103900000160032020700120B6E703202070012011
:10391000B2E7F1BD709B03085ACB00109C4400082D
:10392000849B030824CB0010D49A0308949B0308BB
:103930000C50004004CA0010A89B030874CE00106D
:10394000BC9B0308DC9A0308D09B0308E49B030894
:10395000B2CB0010E49A0308D4CB0010C8BC00100E
:10396000249B0308EC9A030870B50025DFF8084B88
:1039700009E0401C60716078401C6070DFF88408CA
:103980004068A0710125280040F0E7816078014679
:10399000062900F2DE81DFE811F007000101CA010B
:1039A0003E01CA018401CA0103202070E078A17899
:1039B0008842E8D0014621440E7A06F0DF06401C1A
:1039C00000F01F00E070FCF787FF012803D1FCF72F
:1039D000E5FFC0B200E0FF200828D4DA412E03D072
:1039E000482E01D04C2ECED104F19001412E38D179
:1039F0000022DFF88C3A1A7004280AD1DFF8842AF2
:103A00001268D20705D5DFF8802A4A601022A2701A
:103A100018E003280AD1DFF86C2A1268520405D492
:103A2000DFF8682A4A600C22A2700BE0CB4A02EB56
:103A3000800228324A60032801DA820001E0420055
:103A40000E32A2704A6800231360DFF8442A00EBAC
:103A5000800302EB831000F5706008600120607045
:103A600096E0482E45D1032801D0042813D1BC4A42
:103A7000DFF8103A1B685B0405D402F130034B6099
:103A80000023136304E002F12C034B600023D36294
:103A90000C22A27010E0B24A02F1200303EB800373
:103AA0004B602032002342F82030032801DA8200E4
:103AB00001E042000E32A2700322627005285EDA35
:103AC0000122DFF8BC391A70DFF8C429042803D1B9
:103AD00002F59650086006E000EB800302EB8310CD
:103AE00000F5706008604FF48070DFF8A8295080FE
:103AF0004EE0032801D0042813D19A4ADFF8843914
:103B00001B685B0405D402F130034B600023136390
:103B100004E002F12C034B600023D3620C22A2705C
:103B200010E0904A02F1200303EB80034B60203247
:103B3000002342F82030032801DA820001E042002D
:103B40000E32A27005226270052818DA0122DFF811
:103B500030391A70DFF83829042803D102F596505D
:103B6000086006E000EB800302EB831000F5706054
:103B700008604FF48070DFF81C29108008E0DFF83F
:103B8000102900EB800302EB831000F596500860CB
:103B900000206071486117202070F4E6DFF8985B20
:103BA0000020287011F034FB00283FF4EBAE002019
:103BB00004F190010BE091ED050A0A6802EB800226
:103BC000D2ED000A30EE200A81ED050A401C502893
:103BD000F1DB607963287FF4CCAE04F1900041689A
:103BE000A1F1280292ED000ADFED600A20EE200A22
:103BF000D0ED050A80EE800A81ED000A574E1721AC
:103C0000304605F0DBFFF065C043306600202870C9
:103C100025202070B6E6DFF8205B0020287011F028
:103C2000F7FA00283BD0002004F190010BE091ED61
:103C3000050A0A6802EB8002D2ED000A30EE200A83
:103C400081ED050A401C5028F1DB607963281DD105
:103C500004F190004168A1F1200292ED000ADFED2D
:103C6000430A20EE200AD0ED050A80EE800A81ED9D
:103C7000000A3B4E1021304605F0A0FF3064C043DF
:103C80007064002028702520207008E0401C6071BE
:103C90006078401C6070DFF86C054068A0710125F9
:103CA00071E6DFF8945A0020287011F0B1FA00286C
:103CB0003BD0002004F190010BE091ED050A0A6869
:103CC00002EB8002D2ED000A30EE200A81ED050AF7
:103CD000401C5028F1DB607963281DD104F190006D
:103CE0004168A1F1200292ED000ADFED200A20EEEA
:103CF000200AD0ED050A80EE800A81ED000A194EF7
:103D00001021304605F05AFF3064C0437064002033
:103D100028702520207008E0401C60716078401CED
:103D20006070DFF8E0044068A07101252BE6A179FE
:103D3000DFF8D02452688A4201D3511A01E064327C
:103D4000511AC9B2052902DB401E60701BE601252D
:103D500019E603202070012515E670BDB4E60120A8
:103D6000E0BF001028C00010289B03080000FA459F
:103D7000309B030878B585B0DFF8FC4660780328EF
:103D800000F29E81DFE810F00400F0002A016301D8
:103D900003202070E078A178884200F0938104F13C
:103DA000080102468E5C06F0DF06401C00F01F0092
:103DB000E070FCF791FD012803D1FCF7EFFDC0B2E4
:103DC00000E0FF20082880F27D81412E04D0482E9B
:103DD00002D04C2E40F0768104F19005412E35D171
:103DE0000021DFF89C261170DFF8AC1601EB800291
:103DF0006A6004280BD1DFF88C261268D20706D53A
:103E000001F120006860DFF8DC0928601BE003286E
:103E10000BD1DFF870261268520406D401F1240099
:103E20006860DFF8C40928600DE0052805DADFF8CE
:103E3000BC1901EB8000286005E0DFF8B41901EB44
:103E4000800014382860012060705DE0482E2AD17F
:103E5000032801D0042808D1DFF82816096849048E
:103E600003D4DFF8841B696004E0DFF8841B01EBF6
:103E7000800169600221617005283FDA0121DFF8C5
:103E800000261170DFF8701B042803D101F10C002B
:103E9000286002E001EB800028604FF48070DFF8BA
:103EA000F415488030E0032801D0042808D1DFF859
:103EB000D4150968490403D4DFF8401B696004E0A5
:103EC000DFF8C41C01EB80016960032161700528E3
:103ED00014DA0121DFF8A8251170DFF81C1B042873
:103EE00003D101F10C00286002E001EB80002860A2
:103EF0004FF48070DFF89C15088005E0DFF8001BA8
:103F000001EB800014382860002069460AE0E2785E
:103F100004F1080316469B5D0B54521C02F01F026D
:103F2000E270401C1028F2DB00200874684613F091
:103F300016FC51EC100B13F01FFCA86195ED060A5E
:103F4000B5EE400AF1EE10FA40F3BC80DFEDAB0AAB
:103F5000B4EE600AF1EE10FA40F1B4800020607116
:103F6000686118202070ADE0DFF8980A007800073B
:103F700040F1A880607900280AD004F1900191ED09
:103F8000050A0A68D2ED000A30EE200A81ED050A22
:103F9000642820D104F1900090ED050ADFED980A25
:103FA00080EE200A80ED050A4168D1ED000A90ED0F
:103FB000061A60EE810A80EE800A81ED000ADFF8C1
:103FC000D8541721284605F0F9FDE865C043286656
:103FD0002520207076E0401C607173E0DFF8240A31
:103FE000007840076ED5607900280AD004F190016E
:103FF00091ED050A0A68D2ED000A30EE200A81ED43
:10400000050A642820D104F1900090ED050ADFED47
:104010007C0A80EE200A80ED050A4168D1ED000A95
:1040200090ED061A60EE810A80EE800A81ED000AAA
:10403000DFF8BC591021284605F0C0FD2864C043B4
:104040006864252020703DE0401C60713AE0DFF894
:10405000B4090078400735D5607900280AD004F10A
:10406000900191ED050A0A68D2ED000A30EE200AAF
:1040700081ED050A642820D104F1900090ED050A35
:10408000DFED5F0A80EE200A80ED050A4168D1ED80
:10409000000A90ED061A60EE810A80EE800A81ED3A
:1040A000000ADFF8E45A1021284605F087FD28644D
:1040B000C04368642520207004E0401C607101E06A
:1040C0000320207006B070BDB8CD001010B5DFF829
:1040D000A8436078002802D0012823D063E00320A1
:1040E0002070E078A17888425FD0FCF7F5FB0128CA
:1040F00002D1FCF753FC00E0FF20C0B2022854DCE0
:104100000021DF4A117004F19001DFF8682A02EB08
:104110008000086000206071486119202070012033
:10412000607010BDDFF8DC08007800073DD56079CD
:1041300000280AD004F1900090ED050A0168D1ED45
:10414000000A30EE200A80ED050A6079642827D144
:1041500004F1900090ED050ADFED290A80EE200AB7
:1041600080ED050A10EE100A13F0AEFA02460B4677
:10417000274904F1280011F0A9F9207900F0FD0089
:1041800040F0010020710020A0710C20E071DFF8E8
:10419000180C016841F0800101600320207010BDFF
:1041A000401C607110BD0320207010BDB248032177
:1041B0000170C178827891421CD00A460244127A7A
:1041C00002F0DF02491C01F01F01C1704F2A04D127
:1041D0001A210170002141707047532A04D11B211C
:1041E0000170002141707047442A03D11B210170E6
:1041F0000721417070470000ACCD001000401C4703
:104200000000C84258CE0010C4CD00108CD601204A
:10421000CC9A0308A8CC00103CCD001070B5964C89
:104220006078042800F22581DFE810F005005800CE
:104230006A00E300130103202070E078A17888422F
:1042400000F01981FCF748FB012802D1FCF7A6FB1E
:1042500000E0FF200246D2B2042A00F30C81DFF80E
:104260004C1B00234B60DFF8483B8B60DFF8443B7E
:104270004FF400651D804FF480551D804FF40055AC
:104280001D804FF480461E80DFF82C3B1D802023CC
:10429000DFF8285B2B8014234B70887004F19000AA
:1042A000DFF8543703EB820202600122DFF8DC3CC6
:1042B0001A70DFF80C2B13896371002313810A78BD
:1042C00042F003020A701946E1718161DFF8F41AC5
:1042D00041611A2020700120607070BDDFF8240752
:1042E0000078400740F1C780E079401CE071C0B21F
:1042F000B428C0F2C0800020E0710220607070BD60
:10430000DFF800070078400740F1B58004F1900025
:1043100090ED060A0168D1ED000A30EE200A80ED2A
:10432000060AE1790A46082A60DDF2EE040AC0EEC8
:10433000200AC0ED060ADFF8745A95ED020A90EDE6
:10434000051AF4EE410AF1EE10FA1CD5F7EE000A58
:1043500030EE200A85ED020ADFED480AB4EE600A6D
:10436000F1EE10FA06DB03206070287840F00400BC
:10437000287070BD7821E1718169416100218161FE
:104380000120607070BDFFEE000A30EE200A85ED5E
:10439000020ADFF8686BA878042802DA86ED000AC2
:1043A00001E086ED010A1621304605F007FCB065F4
:1043B000C043F0658021012005F0FCF9334630222E
:1043C000DFF8641B012005F099F88421012005F035
:1043D000F1F9DFF8580B416841F400614160287839
:1043E00040F0040028700320607070BD491CE1712A
:1043F00070BDDFF8380B816809053CD5DFF804167D
:104400000978090737D5416821F400614160DFF878
:104410009C0990ED020ABCEEC00A10EE102A0FF2C1
:104420007C0104F1280011F051F8207900F0FD0022
:1044300040F0010020710020A0710420E071DFF83D
:104440006809016841F0800101606078401C60707B
:1044500070BDDFF8B005007800070CD56079DFF893
:10446000601908810020DFF8241B087003202070E9
:1044700070BD0320207070BDC8BC001001E01B455A
:104480007CE40120140C0240FCE6012000E701203E
:10449000B455001018080240B4E6012025202E343F
:1044A0007500000070B5DFF8E84A607801460D2914
:1044B00000F23E81DFE811F00E0075008700750004
:1044C000B4001D012D010E00750087007500B400B9
:1044D0001D012D0103202070E078A178884200F0B2
:1044E0002981FCF7F9F9012804D1FCF757FA0146B4
:1044F000C9B200E0FF21042900F31C81DFF8AC28D9
:10450000607800280DD1B3485060DFF8F009042925
:1045100002DA90ED000A01E090ED010A82ED020A54
:1045200003E000205060AE489060107840F0080032
:104530001070DFF880084FF4006303804FF480535D
:1045400003804FF4005303804FF480450580DFF86B
:10455000680803802020DFF8643818801420507029
:1045600091700120DFF8F43A1870DFF854080389DD
:10457000637100230381107840F003001070184627
:10458000E07104F190001A4642618261DFF868240C
:1045900002EB810101601B2020706078401C60707C
:1045A00070BDDFF860140978090740F1C380E17934
:1045B000491CE171C9B23229C0F2BC800021E1710D
:1045C000401C607070BDDFF83C040078400740F18B
:1045D000B18004F1900191ED050A0868D0ED000A60
:1045E00030EE200A81ED050AE07963287DDBDFEDFE
:1045F000790A80EE200A81ED050ADFF8B0076278BB
:10460000022A03D1DFF85C2A426002E0DFF8582A70
:1046100082600020E07188616078401C607070BD2D
:10462000DFF8E0030078400740F1848004F1900057
:1046300090ED060A0168D1ED000A30EE200A80ED07
:10464000060AE179632950DBDFED620A80EE200A79
:1046500080ED060AD0ED050A30EE600ADFF84C570F
:10466000DFF89868A87806EB8000617804290CD1FF
:104670009FED591A81EE000A80ED0C0A9FED551A44
:1046800000EE601A80ED111A0BE09FED541A81EED6
:10469000000A80ED020A9FED521A00EE601A80EDCA
:1046A000071A1621304605F089FAB065C043F06557
:1046B0008021012005F07EF833463022DFF86818AB
:1046C000012004F01BFF8421012005F073F8DFF8BE
:1046D0005C08416841F400614160287840F00400C2
:1046E00028706078401C607070BDE079401CE071FB
:1046F00070BDDFF838188A6812051BD5C14A1278D8
:10470000120717D54A6822F400624A60401C6070A4
:1047100070BDBC48007800070CD56079DFF8A016A2
:1047200008810020DFF8341908700320207070BD64
:104730000320207070BD0000F4C4001078B585B06F
:10474000FF25DFF84C48E078A178884229D0FCF7B3
:10475000C3F8012802D1FCF721F9054600200146E3
:10476000C4F8A4106E4608E00B4623441B7AB354E9
:10477000401C491C01F01F01E1700246D2B2102A10
:1047800003DAE178A3789942EED100206946885493
:10479000684612F0E4FF51EC100B12F0EDFFC4F884
:1047A000A40094ED290ADFF8E407007800282846E1
:1047B000C0B202D100F01EF801E000F025F9DFF8E8
:1047C000AC0801214171002181710320207006B0E5
:1047D00070BD00000000C8420080BB440040B544EA
:1047E00000601F4528C2001024C2001018C200102B
:1047F00048C20010F8B52DED068BB0EE408ADFF808
:10480000B4154FF400620A804FF480520A804FF4CE
:1048100000520A804FF480430B80DFF89C150A8019
:104820002021DFF898251180DFF844189FED6C0AED
:1048300081ED000A81ED010A81ED020A81ED030A92
:10484000DFF86865B5EE408AF1EE10FAC0F2BE807E
:104850009FED640AB4EE408AF1EE10FA40F1B680A2
:104860000146042900F3B280B070DFF8900602DA46
:1048700090ED000A01E090ED010A00EB810797ED51
:104880000C1AD7ED110A41EE080ADFED588AB4EE92
:10489000688AF1EE10FA0DD530EE801ADFED551A68
:1048A000B4EE611AF1EE10FA04D5C6ED010A86EDF8
:1048B000020A77E000207060DFF8B807408802281D
:1048C00001D004281ED1B4EE688AF1EE10FA97EDFB
:1048D000020A08D5D7ED070A40EE080AB6EE000A2C
:1048E00030EE800A51E020EE080AF0EE080A80EE71
:1048F000200AD7ED070A30EE200AF6EE000A30EE65
:10490000200A42E09FED9C9B9FED9DABB4EE688A30
:10491000F1EE10FA97ED020A20EE080A10EE100AE6
:1049200017D512F0D1FE53EC1A2B1AF0A1F9044658
:104930000D46F86912F0C8FE22462B461AF06AFAB4
:1049400053EC192B1AF066FA12F016FF00EE100A5B
:104950001BE012F0B9FE53EC1A2B1AF089F9002271
:10496000DFF8883B1AF014FB04460D46F86912F094
:10497000ABFE22462B461AF04DFA53EC192B1AF0D7
:1049800049FA12F0F9FE00EE100ADFED1A0AB4EE51
:10499000600AF1EE10FA03DBDFF8540BB06001E0BF
:1049A00086ED020A142070703078B4EE688AF1EE59
:1049B00010FA03D540F00800307002E000F0F70074
:1049C0003070307840F00300307005E03078C10777
:1049D00002D540F004003070BDEC068BF1BD000044
:1049E000F9357F3F016E3E48F0BF001001E87D477A
:1049F000E0BF001001F07F4590C0001038C00010EB
:104A0000A8C0001058CB0010F8B5DFF8A8134FF479
:104A100000620A804FF480520A804FF400520A80EC
:104A20004FF480430B80DFF890130A802021DFF8D9
:104A30008C231180B5EE400AF1EE10FAC0F292809C
:104A4000DFED9D0AB4EE600AF1EE10FA40F18A80C3
:104A50000146042980F28680DFF85063B070DFF8E9
:104A60009C0402DAD0ED000A01E0D0ED010A00EB6F
:104A70008107D7ED0C1A97ED111A01EE801ADFEDC0
:104A80008F1AB4EE610AF1EE10FA0DD571EE201A0C
:104A90009FED8B2AF4EE421AF1EE10FA04D586ED62
:104AA000011AC6ED020A56E000207060DFF8C40566
:104AB0004088022801D0042820D1D7ED020A20EE38
:104AC000800A10EE100A12F0FFFDDFF8282ADFF846
:104AD000283A1AF0CDF804460D46F86912F0F4FDB4
:104AE00022462B461AF096F90022DFF8103A1AF007
:104AF00091F912F041FE00EE100A1FE0D7ED020A14
:104B000020EE800A10EE100A12F0DEFDDFF8F02928
:104B1000DFF8F0391AF0ACF804460D46F86912F0E7
:104B2000D3FD22462B461AF075F90022DFF8CC3966
:104B30001AF070F912F020FE00EE100ADFED600AA4
:104B4000B4EE600AF1EE10FA03DBDFF8A409B060FE
:104B500001E086ED020A14207070307840F0030006
:104B60003070F1BD91480178CA0702D541F00401C7
:104B70000170F1BDF8C10010000000000000E03F2E
:104B80003F355EBA490CF43F28C0001038B5DFF855
:104B900000446078032800F28B80DFE800F0022EEA
:104BA0005082E078A178884200F0848004F1080106
:104BB0000246895C01F0DF01401C00F01F00E0703C
:104BC0004F2901D04D2915D1DFF81C5B4F2905D1A4
:104BD0004FF4406068800020607104E04FF4E050C2
:104BE000688001206071688805F056FC28800120EB
:104BF000607031BD0320207031BDDFF8EC0A0288FF
:104C0000C2F30802DFF8E81A04F1280010F05EFC95
:104C1000202084F82B00207900F0FD0040F00100F6
:104C200020710020A0710420E0715F48016841F00C
:104C300080010160002060800220607031BDE57855
:104C4000A078854236D020781C2833D104F10800A2
:104C5000405D0A2821D10320207004F10800E1788A
:104C6000405C0A2819D00D2817D0284603F0D2FD41
:104C7000DFF8742A50800146B1F5817F0DDA617941
:104C8000002902D04FF4405101E04FF4005101439C
:104C90005180032060701C2020706D1C05F01F05E2
:104CA000CEE705F023FC002804D00320207031BD9E
:104CB0000320207031BD0000016E3E4801E87D47B1
:104CC00001F07F4570B5FF263546FBF705FE01284C
:104CD00003D1FBF763FE0546EDB2012D01D100249F
:104CE0000CE0022D01D1402408E0042D01D18024E4
:104CF00004E0082D01D1C02400E03546FF2D52D03C
:104D00000020DFF8F82916E0C97B00EE101AB8EE93
:104D1000400A02EB8001D1ED000A20EE800A29460C
:104D200000EE901AF8EE600A80EE200A02EB800195
:104D300081ED000A401C1D490428E5DBCD731D48A8
:104D400004214180052100E0491E0A4692B2002A52
:104D5000FAD10421018041F6524000E0401E014694
:104D600089B20029FAD107F03DFDE4B2204604F0F3
:104D70007BFA44F4807004F077FA44F4007004F095
:104D800073FA44F44074204604F06EFADFF87019A8
:104D900001204880142000E0401E024692B2002A02
:104DA000FAD10120088070BD0C50004008CE0010E0
:104DB00000701445181402401A1002401A200240D4
:104DC00004CA0010CE97407B38B5714C607800283B
:104DD00003D0022846D025D37FE0FF20E178A278D7
:104DE000914206D0FBF778FD012802D1FBF7D6FDF2
:104DF000C0B201216170012807D108466071DFF857
:104E0000040904F12801086731BD022807D10220F6
:104E10006071DFF8F40804F12801086731BD032050
:104E2000207031BD04F12800016F0978C90701D550
:104E3000532100E04721017020214170207900F0CA
:104E4000FD0040F0010020710020A0710220E071FF
:104E50005048016841F0800101600020608002201C
:104E6000607031BDE57815E007F05EFF0DE0472882
:104E70000BD104F12800006F017801F0FE010170F0
:104E800060790128F0D107F0F1FE032020706D1C3D
:104E900005F01F05A078854221D020781F281ED15B
:104EA00004F10800405D0A28F1D104F10800E1781E
:104EB000405C00F0DF005328D9D16079012802D18D
:104EC00007F0D4FE01E007F02FFF04F12800006F87
:104ED000017841F001010170D7E70320207031BD56
:104EE000DFF82828535C1144497813EB01225AA1BA
:104EF000DFF81C381844283010F0E8BA58C8001001
:104F0000DFF8082811440A784B7812EB03228B78DB
:104F100002EB0342C97802EB01624FA1DFF8F037E0
:104F20001844283010F0D2BAF400030044CB00102B
:104F30001CB504460422DFF8D407014468461AF081
:104F40004BF9009812F0C0FB02460B46DFF8C4177D
:104F5000DFF8BC072044283010F0B8FA13BD30B495
:104F6000002209E02023DFF8A8470D46ADB22C440B
:104F700084F82830491C521C13460446DBB2A34275
:104F8000F0D3084680B230BC70470000E4CC00107B
:104F9000C8BC00100C50004038B50246DFF870471E
:104FA0002FA104F1280010F091FA06210320FFF749
:104FB000D6FF05460021C0B2FFF7A2FF09352946FA
:104FC00089B20320FFF7CBFF05460421C0B2FFF7EB
:104FD00097FF0935294689B20320FFF7C0FF054630
:104FE0000821C0B2FFF78CFF0935294689B202209B
:104FF000FFF7B5FF05460C21C0B2FFF799FF0D354D
:10500000294689B20220FFF7AAFF05461021C0B247
:10501000FFF78EFF0D35294689B20B20FFF79FFF62
:105020000A2104F128020346D154401C0D210346F5
:105030009BB2D154217901F0FD0141F001012171B0
:105040000021A171401CE071DFF8680B016841F09C
:105050008001016031BD000025387500E4CC0010EE
:10506000253575000000C84400007A454CC6001084
:10507000E0C1001080CB00102DE9F041DFF8904630
:1050800004F12805D5F8788060780146102900F2EF
:105090002882DFE811F01100520052005200520045
:1050A00075007500750075007C00DD004001A301EE
:1050B0001702170217021702FBF70EFC012803D193
:1050C000FBF76CFC064600E0FF263046C0B2FF2826
:1050D00007D0FBF701FC022840F00582FBF779FCC2
:1050E00080463046C0B2FF2809D0FBF7F5FB012807
:1050F00003D1FBF753FC607101E001206071F6B24F
:10510000032E17D8DFE806F002070C11C5F87880E7
:1051100001206070E7E1C5F8788002206070E2E16C
:10512000C5F8788003206070DDE1C5F87880042040
:105130006070D8E103202070D5E1302028707820FD
:1051400068704246DFF8701A04F12A0010F0BEF9C8
:105150003A20E87220202873207900F0FD0040F00A
:10516000010020710020A0710D20E071DFF8440AD9
:10517000016841F0800101606078001D6070B2E15B
:105180002179C90700F1AF81001D6070ABE12020DB
:1051900028700127002615E0A86F0278DFF81C1A96
:1051A0003846C0B2284410F091F9BF1C202039467F
:1051B000C9B268547F1CD5F8788008F10108C5F899
:1051C0007880761C3046C0B2102824DAA8F580100A
:1051D000B0F1FE6F1DD3A8F10160B0F1FE6F18D3DE
:1051E000DFF8DC094044DFF8F01B884211D3DFF818
:1051F000EC0B404444F2F05188420AD3DFF8E00B54
:10520000404443F6F871884203D3DFF8D80B804559
:10521000C2D901206071207900F0FD0040F001004A
:1052200020710A203946C9B268547F1C0D203946C6
:10523000C9B268540020A0717F1CE771DFF87409BF
:10524000016841F0800101606078001D60704AE1F2
:10525000202028700127002615E0A86F0288DFF8BB
:10526000881B3846C0B2284410F030F93F1D20207A
:105270003946C9B268547F1CD5F8788008F1020815
:10528000C5F87880761C3046C0B2072826DCDFF8E7
:105290005C0B4044B0F1FE6F1ED3DFF8540B40446A
:1052A000B0F1FE6F18D3DFF84C0B4044DFF8281B39
:1052B000884211D3DFF8400B404444F2F051884259
:1052C0000AD3DFF8380B404443F6F871884203D321
:1052D000DFF8100B8045C0D301206071207900F009
:1052E000FD0040F0010020710A203946C9B268541F
:1052F0007F1C0D203946C9B268540020A0717F1C64
:10530000E771DFF8B008016841F080010160607862
:10531000001D6070E7E0202028700127002615E0BE
:10532000A86F0268DFF890183846C0B2284410F021
:10533000CDF8093720203946C9B268547F1CD5F80A
:10534000788008F10408C5F87880761C3046C0B231
:10535000042826DADFF8A80A4044B0F1FE6F1ED315
:10536000DFF8A00A4044B0F1FE6F18D3DFF8980AC6
:105370004044DFF8641A884211D3DFF8900A4044B1
:1053800044F2F05188420AD3DFF8840A404443F6DD
:10539000F871884203D3DFF87C0A8045C0D301202E
:1053A0006071207900F0FD0040F0010020710A20BA
:1053B0003946C9B268547F1C0D203946C9B26854B9
:1053C0000020A0717F1CE771DFF8E807016841F059
:1053D000800101606078001D607084E020202870EA
:1053E0000127002626E0A86F90ED000AB5EE400ADE
:1053F000F1EE10FA04DB20203946C9B268547F1C54
:10540000A86F006812F060F902460B46DFF8FC1B3B
:105410003846C0B2284410F059F80C3720203946DD
:10542000C9B268547F1CD5F8788008F10408C5F823
:105430007880761C3046C0B2042826DADFF8C0092E
:105440004044B0F1FE6F1ED3DFF8B8094044B0F11C
:10545000FE6F18D3DFF8B0094044DFF87C198842AA
:1054600011D3DFF8A809404444F2F05188420AD32E
:10547000DFF89C09404443F6F871884203D3DFF813
:1054800094098045AFD301206071207900F0FD00C0
:1054900040F0010020710A203946C9B268547F1CCF
:1054A0000D203946C9B268540020A0717F1CE771F5
:1054B000DFF80007016841F0800101606078001D9D
:1054C000607010E02179C9070DD46179491E6171BE
:1054D000C9B2002902D10320207004E00C386070AA
:1054E00001E003202070BDE8F081000000000840CA
:1054F00000F07F455C8FC2F5285CE73F0000E03F8D
:1055000048E17A14AE47ED3F2DE9F041804D6878CF
:10551000032800F2E580DFE800F0023E47D0E8789B
:10552000A97888421CD0FBF7D7F9012803D1FBF7F3
:1055300035FA044600E0FF242046C0B20C2800DB08
:105540000024FBF7C9F9012802D1FBF727FA01E093
:105550004FF6FF7043F2A021884203D3002001E000
:1055600000242046E4B205F19001DFF8982B062CC8
:1055700006DC02EB840210320A6025226A7105E023
:1055800002EBC402083ACA6026226A710861002050
:10559000486101206870DFF8700B416841F4804178
:1055A0004160022068709DE0DFF85C0B816849046F
:1055B00040F19880416821F48041416005F19008F4
:1055C0004AA7D8F81020394605F128000FF07EFFD1
:1055D00005F12D042C20207020206070D8F81820B0
:1055E00044A105F12F000FF071FF2C20A0722020A4
:1055F000E072DFF8106B3268394605F139000FF0C0
:1056000065FF2C2060742020A074DFF8F07B7268A6
:10561000394605F140000FF059FF2C20607720201B
:10562000A077B268394605F14C000FF04FFF05F145
:1056300056072C20387020207870364C6879252841
:105640000CD1D8F80000006812F03EF802460B4674
:10565000214605F158000FF039FF0EE0D8F80C0094
:10566000D0E9000112F054F812F02EF802460B4671
:10567000214605F158000FF029FF2020B873F87378
:10568000F2681DA105F166000FF020FF0A20787472
:105690000D20B874287900F0FD0040F00100287159
:1056A0000020A8714120E871DFF80805016841F089
:1056B000800101600320687014E02879C00711D4CC
:1056C00005F190004169491C4161142902D303206E
:1056D000287007E00169491C01610120687001E040
:1056E00003202870BDE8F08150CB001025357500EF
:1056F000E49A03082538750025317500B4E60120C9
:105700001810024039E30120D9E3012028B6001027
:10571000C8BC0010CC9A0308F8B50025DFF8D04BC0
:1057200014E040F2EA3004F1A401486048688A7845
:10573000C2EBC20300EB43004860DFF8B82B07213F
:1057400003F054FE6078401C60700125280040F092
:105750002B82617808461B2800F22282DFE810F0D5
:105760001C00DC00EA00400190019C0105021C00C5
:10577000DC00EA00400190019C01050220022002A9
:10578000200220022002200220021C00DC00EA008D
:10579000400190019C01050204F1A407E078A17882
:1057A00088423DD0FBF798F8012803D1FBF7F6F8C3
:1057B000B87001E0FF20B8706078152801D107208B
:1057C00004E0002801D1152000E01520B9788142BD
:1057D00001D3FF20B870FBF77FF8012803D1FBF756
:1057E000DDF8C0B200E000200C2800DB00200146FC
:1057F000052901DC800001E040000C30F870FBF767
:105800006BF80646012803D1FBF7C8F8607101E088
:10581000FF2060716079252808DB0020607105E0B9
:1058200000206071FF20B8700020F870B878FF2861
:1058300062D1002204F1280104E0DFF8A80B805CAB
:105840008854521C0C2AF8DB607800280CD1DFF851
:10585000980BC278142A00DD14228078002801D128
:1058600014261EE0461E1CE007280CD1DFF87C0B36
:10587000C278142A00DD14228078002801D1142671
:105880000FE0461E0DE015280BD1DFF8640BC2783F
:10589000062A00DD06228078002801D1062600E0D5
:1058A000461EC2A5294604F134000FF00FFE002069
:1058B00006E0DFF8401B095C221882F83610401C15
:1058C0000C28F6DB3246D2B2294604F142000FF032
:1058D000FDFD207900F0FD0040F001002071002066
:1058E000A0711C20E071B348016841F080010160A3
:1058F00003202070012529E76079002803D1607812
:10590000401C607022E70020DFF8DC1C0870787013
:105910006078C01C607019E7162905D14FF4A260A9
:1059200004F1A401486001E701297FF4FAAE4FF4C5
:105930003170F8E6002004F1280204E0DFF8A81B2B
:10594000095C1154401C0E28F8DDDFF8B8576A894D
:1059500097A104F137000FF0B9FD002006E0DFF851
:105960008C1B095C221882F83B10401C0528F6DDD0
:10597000DFF888782A69394604F141000FF0A6FD66
:1059800004F14B002C210170202141706A693946D5
:1059900004F14D000FF09AFD002006E0DFF8501BE7
:1059A000095C221882F85710401C0628F6DDEA68C8
:1059B000394604F15E000FF089FD207900F0FD000A
:1059C00040F0010020710020A0714020E071794872
:1059D000016841F080010160032020700125B5E6D7
:1059E00004F1A402182903D14FF4E010506007E03D
:1059F000032902D14FF4A80001E04FF428105060B1
:105A0000DFF8EC0B617900EBC100A0F108035168ED
:105A100090781D882D0205EB4045D0782818411854
:105A20005160DFF8C40B0078002804D15D8805EBD5
:105A3000C507BD0001E005462D0269185160002828
:105A400004D15888C0F1070010700AE09D881988B9
:105A50006D1AA84203D1D888401C107001E00720BD
:105A600010705178107841185170DFF89C06416829
:105A700041F4804141606078401C6070012565E61A
:105A8000DFF884068268520440F18880426822F47C
:105A900080424260491C61700020024604F12803E4
:105AA00001E05A54401C0146C9B26229F9DB17468D
:105AB00004F1A405E878142816463EDC304629781F
:105AC000C0B288423ED2DFF83C063146C9B250F837
:105AD000210011F0F9FD02460B46DFF8081C04F125
